:020000040800F2
:100000000000022079180008391800083B18000881
:100010003D1800083F1800084118000800000000C3
:10002000000000000000000000000000431800086D
:10003000451800080000000047180008491800088B
:10004000C9180008C9180008C9180008C91800080C
:10005000C9180008C9180008C9180008C9180008FC
:10006000C9180008C9180008C9180008C9180008EC
:10007000C9180008C9180008C9180008C9180008DC
:10008000C9180008C9180008C9180008591800083C
:100090004D180008C9180008C9180008C918000838
:1000A000C9180008C9180008C9180008C9180008AC
:1000B000C9180008C9180008C9180008C91800089C
:1000C000C9180008C9180008C9180008C91800088C
:1000D000C9180008C9180008C9180008C91800087C
:1000E000C9180008C9180008C9180008C91800086C
:1000F000C9180008C9180008C9180008C91800085C
:10010000C9180008C9180008C9180008C91800084B
:10011000C9180008C9180008C9180008C91800083B
:10012000C9180008C9180008C9180008C91800082B
:10013000C9180008C9180008C9180008C91800081B
:10014000C9180008C9180008C9180008C91800080B
:10015000C9180008C9180008C9180008C9180008FB
:10016000C9180008C9180008C9180008C9180008EB
:10017000C9180008C9180008C918000800000000C4
:08018000C9180008C9180008A5
:1001880010B5054C237833B9044B13B10448AFF3C9
:1001980000800123237010BD100000200000000023
:1001A8002419000808B5034B1BB103490348AFF3F2
:1001B800008008BD00000000140000202419000879
:1001C80053B94AB9002908BF00281CBF4FF0FF31B6
:1001D8004FF0FF3000F07AB9ADF1080C6DE904CEAC
:1001E80000F006F8DDF804E0DDE9022304B070470A
:1001F8002DE9F0478C460D460446089E002B51D148
:100208008A4217466DD9B2FA82FEBEF1000F0BD0B2
:10021800CEF1200C01FA0EF520FA0CFC02FA0EF7CA
:100228004CEA050C00FA0EF44FEA174A250CBCFB01
:10023800FAF81FFA87F90AFB18CC45EA0C4508FBBF
:1002480009F3AB420AD9ED1908F1FF3280F0238196
:10025800AB4240F22081A8F102083D44ED1AA4B255
:10026800B5FBFAF00AFB105544EA054400FB09F90E
:10027800A14509D9E41900F1FF3380F00A81A145AD
:1002880040F2078102383C44A4EB090440EA0840E4
:100298000021002E61D024FA0EF40023346073602C
:1002A800BDE8F0878B4207D9002E54D0002186E89C
:1002B80021000846BDE8F087B3FA83F1002940F031
:1002C8008E80AB4202D3824200F2FA80841A65EB38
:1002D80003050120AC46002E3FD086E81010BDE88B
:1002E800F08712B90127B7FBF2F7B7FA87FEBEF11C
:1002F800000F34D1EB1B3A0C1FFA87FC0121B3FB2A
:10030800F2F8250C02FB183345EA03450CFB08F309
:10031800AB4207D9ED1908F1FF3002D2AB4200F227
:10032800D1808046ED1AA3B2B5FBF2F002FB10555E
:1003380043EA05440CFB00FCA44507D9E41900F185
:10034800FF3302D2A44500F2B8801846A4EB0C048F
:1003580040EA08409DE731463046BDE8F087CEF1D7
:10036800200405FA0EF307FA0EF720FA04F83A0CFF
:1003780025FA04F448EA0308B4FBF2F14FEA1845F9
:1003880002FB11441FFA87FC45EA044501FB0CF304
:10039800AB4200FA0EF409D9ED1901F1FF3080F0F3
:1003A8008A80AB4240F2878002393D44EB1A1FFA3B
:1003B80088F5B3FBF2F002FB103345EA034500FB76
:1003C8000CF3AB4207D9ED1900F1FF386FD2AB42FD
:1003D8006DD902383D44EB1A40EA01418FE7C1F17B
:1003E800200722FA07F88B4005FA01F448EA0303CC
:1003F80020FA07FE4FEA134CFD404EEA040EB5FB07
:10040800FCF94FEA1E440CFB19551FFA83F844EA1D
:10041800054509FB08F4AC4202FA01F200FA01FAB8
:1004280008D9ED1809F1FF3043D2AC4241D9A9F1FE
:1004380002091D442D1B1FFA8EFEB5FBFCF00CFBB8
:1004480010554EEA054400FB08F8A04507D9E41802
:1004580000F1FF3529D2A04527D902381C4440EACB
:100468000940A4EB0804A0FB02894C45C6464D464A
:1004780015D312D056B1BAEB0E0364EB050404FA97
:1004880007F7CB401F43CC40376074600021BDE8BC
:10049800F0871846F8E69046E0E6C245EAD2B8EB9F
:1004A800020E69EB03050138E4E72846D7E7404622
:1004B80091E78146BEE7014678E702383C4445E7C4
:1004C800084608E7A8F102083D442BE7704700BF3B
:1004D80010B58AB000230C4C059301226946069397
:1004E800009301930293039304930E2307920892B7
:1004F800099300F0E5F9204600F06AFA0221204647
:1005080000F054FB0AB010BD8800002000B5026856
:100518001F4B9A428BB004D101AB03AA002100F013
:10052800CFFA039B6FF401729A18062A194A20D849
:10053800118801311180053B17490C20DBB200FB03
:1005480003139DF804009DF8051041EA00219980E5
:100558009DF806009DF8071041EA0021D9809DF812
:1005680008009DF8091041EA002119819DF80A1038
:1005780099721388B3F5FA7F06D100231380074ACE
:10058800536983F4805353610BB05DF804FB00BFDB
:10059800006400402E00002030000020000C0240C3
:1005A80000B5124B12481B6889B0082202930692C4
:1005B8000023DA22049305938DF800308DF801208A
:1005C8008DF802308DF804308DF805308DF806303E
:1005D80019222F238DF803208DF807306A4601234E
:1005E80002A900F020FA09B05DF804FB0000002021
:1005F8008800002000B5134B13481B6889B00822F7
:10060800029300230493059306928DF800308DF829
:1006180002308DF804308DF80530DA220A238DF87F
:1006280001208DF8063013220B238DF803208DF856
:1006380007306A46012302A900F0F5F909B05DF810
:1006480004FB00BF000000208800002000B5134B09
:1006580013481B6889B0082202930023049305936A
:1006680006928DF800308DF802308DF804308DF840
:100678000530DA2205238DF801208DF80630112285
:1006880055238DF803208DF807306A46012302A907
:1006980000F0C9F909B05DF804FB00BF00000020B4
:1006A8008800002000B5124B12481B6889B0082248
:1006B800029306920023DA22049305938DF8003002
:1006C8008DF801208DF802308DF804308DF8053052
:1006D8008DF8063010221F238DF803208DF807307F
:1006E8006A46012302A900F09EF909B05DF804FBEF
:1006F800000000208800002038B5084D084C2B78F1
:1007080008482370012100F0B7FC287020B9207830
:10071800431E5842584138BD002038BD2C000020E7
:100728002D0000200000024038B50E4A0E4B054649
:1007380018784FF47A73B3FBF0F31068B0FBF3F05A
:1007480000F0A4FB044658B90F2D09D802462946E3
:100758004FF0FF3000F058FB044B20461D6038BDB9
:10076800012038BD0C0000200400002008000020F3
:1007780008B50B4B1A6842F400721A601A6842F402
:1007880080621A601A6842F480721A60032000F0CE
:1007980029FB0020FFF7C8FF01F02EF8002008BD54
:1007A800003C0240034A044B11681B780B44136059
:1007B800704700BF8400002004000020014B186827
:1007C800704700BF8400002038B5044600286ED06A
:1007D80090F820300BB900F0EDFE2268136823F082
:1007E80002031360FFF7EAFF054623685A6891077A
:1007F80051D41A6842F001021A60FFF7DFFF05467C
:1008080023685A68D20754D5227E012A1A680CBF79
:1008180042F0800222F080021A60627E012A1A6881
:100828000CBF42F0400222F040021A60A27E012A68
:100838001A680CBF42F0200222F020021A60E27E01
:10084800012A1A680CBF22F0100242F010021A6046
:10085800227F012A1A680CBF42F0080222F008021F
:100868001A60627F012A1A680CBF42F0040222F063
:1008780004021A60E168A2680A4321690A436169AF
:100888000A43616801390A43DA6100200123606282
:1008980084F8203038BDFFF791FF401B0A28A4D9FF
:1008A800636A43F400336362052384F8203001202F
:1008B80038BDFFF783FF401B0A28A1D9F0E70000E5
:1008C80090F82030013B012B30B579D83F4BD3F855
:1008D800002242F00102C3F80022D3F8002222F4D9
:1008E8007C52C3F80022D3F80022486A42EA002268
:1008F800C3F800224869D3F81C5200F01F020124F3
:100908009440E2431540C3F81C52CD69002D36D1FE
:10091800D3F80C521540C3F80C52C000CD688B8830
:1009280000F1804000F5C84043EA0543C0F8403272
:100938008D680B8843EA0543C0F844328869234B25
:10094800002835D1D3F804021040C3F8040208691E
:1009580090BBD3F814020240C3F814220B6A1B4A56
:10096800012B02BFD2F81C322343C2F81C32D2F842
:10097800003223F00103C2F80032002030BD012DFF
:10098800DCD1D3F80C522543C3F80C520B688D8880
:1009980045EA0345C30003F1804303F5C84388894A
:1009A800C3F840528D6840EA0540C3F84402C5E7E1
:1009B800D3F804022043C8E7D3F814222243CBE734
:1009C800436A43F480234362012030BD0064004041
:1009D80038B590F82030012B04461FD10268022355
:1009E80080F82030136823F001031360FFF7E6FE58
:1009F80005462368586810F0010001D1606238BDCF
:100A0800FFF7DCFE401B0A28F3D9636A43F400337E
:100A18006362052384F82030012038BD436A43F41B
:100A280000234362F8E7F0B590F820500668013DCE
:100A3800012DB46840D814F0E05F39D0C4F30164E4
:100A4800032C4FF0010505D1436A43F400034362C8
:100A58000120F0BDA5401D608868CF6804F1180327
:100A680008BB086847EA40501B012401F0503319BD
:100A78000869097DC3F88401012902BFD3F88411EC
:100A880041F48071C3F8841134445168C4F88C115E
:100A98001268C4F88821D3F8802142F00102C3F813
:100AA80080210020F0BD4D68384340EAC500DBE7EF
:100AB800436A43F40013CAE7436A43F48023C6E752
:100AC800F0B590F82040013C012C6BD8066841B97C
:100AD800F468A40707D1436A43F400134362012072
:100AE800F0BD3469F5E70C013519D5F8B07107F098
:100AF80004079760002F4BD1D5F8B0717F0D1760B0
:100B0800D5F8B07107F00207D760D5F8B47107F0CF
:100B18000F071761D5F8B471D5F8B4512644C7F357
:100B280007272D0C97615561D6F8B8211A7002680D
:100B38002244D2F8B821120A5A7002682244D2F824
:100B4800B821120C9A7002682244D2F8B821120E09
:100B5800DA7002682244D2F8BC211A710268224471
:100B6800D2F8BC21120A5A7102682244D2F8BC2178
:100B7800120C9A7102681444D4F8BC21120EDA716E
:100B8800036851B9DA6842F02002DA600020F0BD4B
:100B9800D5F8B071FF085760B2E71A6942F0200231
:100BA8001A61F3E7436A43F4802397E790F820300B
:100BB800013B012B05D80268536919435161002094
:100BC8007047436A43F480234362012070477047AB
:100BD8007047704770477047704770477047704755
:100BE8007047704770472DE9F84F03685E69D3F87E
:100BF80004909F68D3F80CB0D3F810A0D3F81880ED
:100C080016F00104054622D017F0010407D001228E
:100C1800B9079A6040F1A380FFF7D9FF0024FB05CC
:100C280009D52B684FF48072B8059A6040F1A58009
:100C38002846FFF7CDFFFB0309D52B684FF4803218
:100C4800B8039A6040F1A7802846FFF7C2FF330730
:100C580007D51BF0100F1FBF2B68102244F4007437
:100C6800DA60770708D51BF0080F05D02B68082233
:100C7800DA602846FFF7B1FFB00706D52B68DB68B6
:100C8800990702D02846FFF741FC720607D51AF0EB
:100C9800100F1FBF2B68102244F480641A61B3063A
:100CA80008D51AF0080F05D02B6808221A612846C3
:100CB800FFF795FFF70606D52B681B69980702D042
:100CC8002846FFF78BFFB10308D519F0100F05D0A0
:100CD8002B6810225A602846FFF782FFF20308D5D6
:100CE80019F0080F05D02B6808225A602846FFF72C
:100CF80078FF33042AD519F0040F2A6824D0F705A1
:100D080004D518F0010F18BF44F00104B00504D54C
:100D180018F0020F18BF44F00204710504D518F04A
:100D2800040F18BF44F0040433050DD518F0700300
:100D38000AD0302B4CD03CD8102B43D0202B44D099
:100D4800936923F070039361042353602CB16B6A99
:100D58001C436C622846FFF745FFBDE8F88F7A0709
:100D680005D417F0080405D1FFF734FF57E74FF40F
:100D7800006454E74FF4805451E7790502D544F4F0
:100D8800005458E73A0502D544F4804453E728460E
:100D9800FFF721FF4FE7790302D544F4004456E7F3
:100DA8003A0302D544F4803451E72846FFF714FF8C
:100DB8004DE7502B0FD0602B10D0402BC0D144F002
:100DC8004004BDE744F00804BAE744F01004B7E76C
:100DD80044F02004B4E744F08004B1E744F480749C
:100DE800AEE70000074AD36823F4E0631B041B0C3A
:100DF80043F0BF63000243F4003300F4E0600343B0
:100E0800D360704700ED00E0174B30B5DC68C4F3E1
:100E18000224C4F10703251D042B28BF0423062D33
:100E28004FF0010505FA03F303F1FF338CBF033CD0
:100E380000241940A14005FA04F4013C224000288E
:100E480042EA01024FEA0212ADBF00F1604000F031
:100E58000F00064B00F56140B5BFD2B2D2B21A54AA
:100E680080F8002330BD00BF00ED00E014ED00E085
:100E7800002808DB4209012300F01F0003FA00F0F4
:100E8800014B43F82200704700E100E00138B0F15F
:100E9800807F0AD2064B074A5860F02182F8231057
:100EA8000020072298601A6070470120704700BF31
:100EB80010E000E000ED00E02DE9F04F85B00B6890
:100EC800DFF8AC81684ADFF8AC9101930023012474
:100ED800019D9C402540AC4240F0B0804C6824F015
:100EE800100C0CF1FF36012E4FEA430E12D887681A
:100EF800032606FA0EF627EA0607CE6806FA0EF665
:100F08003E4386604768C4F3001627EA05079E40FB
:100F18003E4346600326C76806FA0EF6F64307EA1C
:100F2800060A8F6807FA0EF747EA0A07BCF1020FAC
:100F3800C76016D14FEAD30A00EB8A0A03F0070B01
:100F4800DAF820704FEA8B0B4FF00F0C0CFA0BFC01
:100F580027EA0C0C0F6907FA0BF747EA0C07CAF8DF
:100F6800207007683E4004F0030707FA0EFE4EEAB9
:100F780006060660E60061D54FF0000BCDF80CB010
:100F8800D8F84470394E47F48047C8F84470D8F808
:100F9800447007F480470397039F23F0030707F182
:100FA800804707F59C3703F0030CD7F808A04FEAF1
:100FB8008C0C4FF00F0E0EFA0CFEB0422AEA0E0E01
:100FC80043D006F58066B04241D006F58066B0424F
:100FD8003FD006F58066B0423DD006F58066B04247
:100FE8003BD048453BD006F50066B04239D006F5FF
:100FF8008066B04214BF0826072606FA0CF646EAB1
:101008000E06BE601668EF4314F4803F0CBF3E40E6
:101018002E431660566814F4003F0CBF3E402E4322
:101028005660966814F4801F0CBF3E402E439660AD
:10103800D668A40254BF3E402E43D6600133102B1D
:101048007FF445AF05B0BDE8F08F5E46D5E70126D1
:10105800D3E70226D1E70326CFE70426CDE7052606
:10106800CBE70626C9E700BF003C0140000002406C
:1010780000380240001402400369194214BF0120DD
:10108800002070470AB1816170470904FBE700003E
:101098002DE9F341044608B901203FE00368DD0764
:1010A80010D4236898075AD423681A0700F19C8043
:1010B80023685B0700F1BA80A069002840F01B8113
:1010C80000202BE0A44B9A6802F00C02042A07D0F7
:1010D8009A6802F00C02082A0AD15B68590207D5FF
:1010E8009D4B1B689A03DCD56368002BD9D1D3E7E5
:1010F8006368994DB3F5803F13D12B6843F480336F
:101108002B60FFF75BFB944D06462B689B03C8D406
:10111800FFF754FB801B6428F7D9032002B0BDE811
:10112800F081B3F5A02F04D12B6843F480232B6002
:10113800E3E72A6822F480322A602A6822F48022AF
:101148002A60002BDDD1FFF739FB06462B689F0389
:10115800A7D5FFF733FB801B6428F7D9DDE77E4B63
:101168009A6812F00C0F07D09A6802F00C02082A4D
:1011780011D15B685E020ED4774B1A68950702D5C9
:10118800E268012A88D11A68216922F0F80242EA45
:10119800C1021A6088E7E268704BB2B101221A6096
:1011A800FFF70CFB6C4D06462B68980707D52B6894
:1011B800226923F0F80343EAC2032B6074E7FFF7C0
:1011C800FDFA801B0228EFD9A7E71A60FFF7F6FAA5
:1011D800614D06462B6899077FF566AFFFF7EEFA73
:1011E800801B0228F6D998E762695D4B7AB1012223
:1011F8001A60FFF7E3FA584D06466B6F9F073FF5F5
:1012080057AFFFF7DBFA801B0228F6D985E71A608B
:10121800FFF7D4FA504D06466B6F98077FF548AF35
:10122800FFF7CCFA801B0228F6D976E74A4B1A6CEE
:1012380012F0805228D101921A6C42F080521A643E
:101248001B6C03F080530193019B0126454D2B68CD
:10125800D9051BD5A368404D012B27D12B6F43F02F
:1012680001032B67FFF7AAFA3B4D074641F288387E
:101278002B6F9B0739D5002E3FF41EAF364A136CEF
:1012880023F08053136417E70026DFE72B6843F445
:1012980080732B60FFF792FA07462B68DA05D9D4DA
:1012A800FFF78CFAC01B0228F7D936E7052B04D1C3
:1012B8002B6F43F004032B67D0E72A6F22F001025B
:1012C8002A672A6F22F004022A67002BCAD1FFF787
:1012D80075FA41F2883807462B6F9807CBD5FFF788
:1012E8006DFAC01B4045F7D917E7FFF767FAC01B2F
:1012F8004045BDD911E7184DAB6803F00C03082B26
:1013080047D0194E00230228336035D1FFF756FA2B
:1013180007462B68990129D4226AE3691343626A54
:1013280043EA8213E26A43EA0263A26A0A4C520859
:10133800013A43EA02436B6001233360FFF73EFA48
:10134800054623689A013FF5BBAEFFF737FA401B05
:101358000228F6D9E1E600BF003802400000474203
:10136800800E47420070004060004742FFF726FAAF
:10137800C01B0228CDD9D0E6FFF720FA04462B6817
:101388009B017FF59DAEFFF719FA001B0228F6D9DD
:10139800C3E601283FF4C2AE6868E36900F480023E
:1013A8009A427FF479AE226A00F03F0393427FF4B9
:1013B80073AE626A47F6C073034093427FF46CAE23
:1013C800A26A00F4403393427FF466AEE36A00F009
:1013D8007060C01A18BF0120A0E600BF134908B505
:1013E8008B6803F00C03042B03D0082B03D01048A0
:1013F80008BD104808BD4A684B68496813F4800363
:1014080014BF0C480A48C1F3881118BF002302F022
:101418003F02A1FB0001FEF7D3FE044B5B68C3F358
:10142800014301335B00B0FBF3F008BD0038024014
:101438000024F40000127A002DE9F0410D4604461C
:1014480010B90120BDE8F081444B1A6802F00F0280
:101458008A4229D321688F072ED4C80741D43F4B2D
:101468001A6802F00F02954267D3226851076DD4BB
:10147800130707D53A4A2169936823F4604343EA7E
:10148800C1039360FFF7AAFF354B364A9B68C3F345
:101498000313D35CD840344B1860344B1868FFF7FB
:1014A80043F90020BDE8F081CAB21A701B6803F046
:1014B8000F039942C5D1CDE7294B11F0040F1EBF88
:1014C8009A6842F4E0529A600E0742BF9A6842F462
:1014D80060429A609A68A06822F0F00202439A601B
:1014E800BBE762681E4B012A1DD11B6813F4003F3D
:1014F800A7D01B4EB36823F003031343B360FFF771
:101508005DF941F288380746B368626803F00C0356
:10151800B3EB820FA3D0FFF751F9C01B4045F3D9B5
:101528000320BDE8F081911E01291B6802D813F041
:10153800007FDDE713F0020FDAE7EAB21A701B68E2
:1015480003F00F039D427FF47CAF8EE70449E06807
:101558008B6823F4E05303438B6089E7003C024027
:10156800003802403C1900080C0000200800002048
:1015780008B50E480E4B4FF440224FF0040E80E899
:101588000840026100234FF480128360C360426107
:10159800037643768376C37603774377FFF714F9A8
:1015A80018B1BDE8084000F025B908BD8800002042
:1015B80000640040F0B5044689B01422002103A855
:1015C80000F0A4F92268234B9A4240D1002403F585
:1015D800EA3301941A6C204842F000721A641A6CBB
:1015E80002F000720192019A02941A6B42F0020210
:1015F8001A631B6B03F002030293029B4FF4807380
:101608000393022701230326092503A905930497B9
:1016180006960795FFF750FC4FF4007303A90E4890
:1016280003930497059406960795FFF745FC224611
:1016380021461320FFF7E8FB1320FFF719FC1420BD
:1016480022462146FFF7E0FB1420FFF711FC09B002
:10165800F0BD00BF006400400004024070B51422D1
:101668008AB00DEB0200002100F050F90024224B53
:1016780001941A6B214D42F080021A631A6B02F032
:1016880080020192019A02941A6B42F001021A63D5
:101698001A6B02F001020292029A03941A6B42F04A
:1016A80008021A631A6B02F008020392039A049460
:1016B8001A6B42F002021A631B6B03F00203224604
:1016C800049328464FF47041049B0126FFF7DAFC87
:1016D80005A90B48059606940794FFF7EDFB4FF410
:1016E800704305A928460593069607940894FFF7C2
:1016F800E3FB0AB070BD00BF00380240000C024096
:101708000000024070B594B03022002108A800F013
:10171800FDF80021142203A800F0F8F800241C4B5F
:1017280001941A6C42F080521A641B6C03F08053C7
:101738000193019B174B02941A6842F480421A6085
:101748001B6803F480430293029B4FF48033099390
:101758004FF480030F93082310934FF480730225EE
:101768000126119308A80423139308960E95129541
:10177800FFF78EFC0F2303933146902303A80495AB
:10178800059306940794FFF757FE14B070BD00BF89
:10179800003802400070004008B5FEF7E9FFFFF787
:1017A800B1FFFFF75BFFFFF7E3FE0F480F4C104D4B
:1017B800FEF78EFE0026238801331BB2FA2B01BFE9
:1017C8006B69268083F400536B6118BF2380FEF792
:1017D80093FF0028EFD0FEF7E3FEFEF70BFFFEF7BE
:1017E80035FFFEF75FFFE5E7880000201C020020B8
:1017F800000C02407047000082B00C4B00210091A1
:101808005A6C42F480425A645A6C02F48042009244
:10181800009A01911A6C42F080521A641B6C03F012
:1018280080530193019B02B0704700BF003802400B
:101838007047FEE7FEE7FEE7FEE770477047704730
:10184800FEF7B0BF0148FFF7CEB900BF88000020FF
:10185800FFF7F8BF054BD3F8882042F47002C3F8AD
:1018680088204FF000629A60704700BF00ED00E0EA
:10187800DFF834D0002103E00C4B5B5843500431AF
:101888000B480C4B42189A42F6D30B4A02E000234D
:1018980042F8043B094B9A42F9D3FFF7DBFF00F00B
:1018A80011F8FFF779FF7047000002205C19000863
:1018B800000000201000002010000020240200205A
:1018C800FEE7000070B50D4E0D4CA41BA4100025BA
:1018D800A54209D10B4E0C4C00F020F8A41BA41013
:1018E8000025A54205D170BD56F825309847013529
:1018F800EEE756F8253098470135F2E75419000805
:1019080054190008541900085819000802440346DD
:10191800934200D1704703F8011BF9E7F8B500BFFF
:10192800F8BC08BC9E467047F8B500BFF8BC08BCB8
:041938009E46704710
:10193C000000000000000000010203040607080973
:08194C00ACE8FF7F0100000080
:04195400AD010008D9
:0419580089010008F9
:10195C000400000001000000100000000024F4004E
:04000005080018795E
:00000001FF
